{
  "_format": "hh-sol-artifact-1",
  "contractName": "Chronium",
  "sourceName": "contracts/chronium-contracts-sol/Chronium.sol",
  "abi": [
    {
      "inputs": [
        {
          "internalType": "string",
          "name": "name",
          "type": "string"
        },
        {
          "internalType": "string",
          "name": "symbol",
          "type": "string"
        },
        {
          "internalType": "address",
          "name": "governance",
          "type": "address"
        }
      ],
      "stateMutability": "nonpayable",
      "type": "constructor"
    },
    {
      "anonymous": false,
      "inputs": [
        {
          "indexed": true,
          "internalType": "address",
          "name": "owner",
          "type": "address"
        },
        {
          "indexed": true,
          "internalType": "address",
          "name": "spender",
          "type": "address"
        },
        {
          "indexed": false,
          "internalType": "uint256",
          "name": "value",
          "type": "uint256"
        }
      ],
      "name": "Approval",
      "type": "event"
    },
    {
      "anonymous": false,
      "inputs": [
        {
          "indexed": false,
          "internalType": "address",
          "name": "sender",
          "type": "address"
        },
        {
          "indexed": false,
          "internalType": "address",
          "name": "originator",
          "type": "address"
        },
        {
          "indexed": false,
          "internalType": "uint256",
          "name": "amount",
          "type": "uint256"
        }
      ],
      "name": "LogReturnOtherTime",
      "type": "event"
    },
    {
      "anonymous": false,
      "inputs": [
        {
          "indexed": false,
          "internalType": "address",
          "name": "Account",
          "type": "address"
        },
        {
          "indexed": false,
          "internalType": "uint256",
          "name": "Amount",
          "type": "uint256"
        }
      ],
      "name": "LogStartTime",
      "type": "event"
    },
    {
      "anonymous": false,
      "inputs": [
        {
          "indexed": false,
          "internalType": "address",
          "name": "sender",
          "type": "address"
        },
        {
          "indexed": false,
          "internalType": "address",
          "name": "originator",
          "type": "address"
        },
        {
          "indexed": false,
          "internalType": "address",
          "name": "recipient",
          "type": "address"
        },
        {
          "indexed": false,
          "internalType": "uint256",
          "name": "amount",
          "type": "uint256"
        }
      ],
      "name": "LogTransferOtherTime",
      "type": "event"
    },
    {
      "anonymous": false,
      "inputs": [
        {
          "indexed": false,
          "internalType": "address",
          "name": "sender",
          "type": "address"
        },
        {
          "indexed": false,
          "internalType": "address",
          "name": "recipient",
          "type": "address"
        },
        {
          "indexed": false,
          "internalType": "uint256",
          "name": "amount",
          "type": "uint256"
        }
      ],
      "name": "LogTransferOwnTime",
      "type": "event"
    },
    {
      "anonymous": false,
      "inputs": [
        {
          "indexed": true,
          "internalType": "address",
          "name": "previousOwner",
          "type": "address"
        },
        {
          "indexed": true,
          "internalType": "address",
          "name": "newOwner",
          "type": "address"
        }
      ],
      "name": "OwnershipTransferred",
      "type": "event"
    },
    {
      "anonymous": false,
      "inputs": [
        {
          "indexed": true,
          "internalType": "address",
          "name": "from",
          "type": "address"
        },
        {
          "indexed": true,
          "internalType": "address",
          "name": "to",
          "type": "address"
        },
        {
          "indexed": false,
          "internalType": "uint256",
          "name": "value",
          "type": "uint256"
        }
      ],
      "name": "Transfer",
      "type": "event"
    },
    {
      "inputs": [],
      "name": "DOMAIN_SEPARATOR",
      "outputs": [
        {
          "internalType": "bytes32",
          "name": "",
          "type": "bytes32"
        }
      ],
      "stateMutability": "view",
      "type": "function"
    },
    {
      "inputs": [],
      "name": "PERMIT_TYPEHASH",
      "outputs": [
        {
          "internalType": "bytes32",
          "name": "",
          "type": "bytes32"
        }
      ],
      "stateMutability": "view",
      "type": "function"
    },
    {
      "inputs": [
        {
          "internalType": "address",
          "name": "originator",
          "type": "address"
        },
        {
          "internalType": "address",
          "name": "recipient",
          "type": "address"
        },
        {
          "internalType": "uint256",
          "name": "amount",
          "type": "uint256"
        }
      ],
      "name": "TransferOtherTime",
      "outputs": [
        {
          "internalType": "bool",
          "name": "",
          "type": "bool"
        }
      ],
      "stateMutability": "nonpayable",
      "type": "function"
    },
    {
      "inputs": [
        {
          "internalType": "address",
          "name": "owner",
          "type": "address"
        },
        {
          "internalType": "address",
          "name": "spender",
          "type": "address"
        }
      ],
      "name": "allowance",
      "outputs": [
        {
          "internalType": "uint256",
          "name": "",
          "type": "uint256"
        }
      ],
      "stateMutability": "view",
      "type": "function"
    },
    {
      "inputs": [
        {
          "internalType": "address",
          "name": "spender",
          "type": "address"
        },
        {
          "internalType": "uint256",
          "name": "amount",
          "type": "uint256"
        }
      ],
      "name": "approve",
      "outputs": [
        {
          "internalType": "bool",
          "name": "",
          "type": "bool"
        }
      ],
      "stateMutability": "nonpayable",
      "type": "function"
    },
    {
      "inputs": [
        {
          "internalType": "address",
          "name": "account",
          "type": "address"
        }
      ],
      "name": "balanceOf",
      "outputs": [
        {
          "internalType": "uint256",
          "name": "",
          "type": "uint256"
        }
      ],
      "stateMutability": "view",
      "type": "function"
    },
    {
      "inputs": [
        {
          "internalType": "address",
          "name": "timeOwner",
          "type": "address"
        }
      ],
      "name": "checkTimeBalance",
      "outputs": [
        {
          "internalType": "uint256",
          "name": "",
          "type": "uint256"
        }
      ],
      "stateMutability": "view",
      "type": "function"
    },
    {
      "inputs": [],
      "name": "decimals",
      "outputs": [
        {
          "internalType": "uint8",
          "name": "",
          "type": "uint8"
        }
      ],
      "stateMutability": "pure",
      "type": "function"
    },
    {
      "inputs": [
        {
          "internalType": "address",
          "name": "spender",
          "type": "address"
        },
        {
          "internalType": "uint256",
          "name": "subtractedValue",
          "type": "uint256"
        }
      ],
      "name": "decreaseAllowance",
      "outputs": [
        {
          "internalType": "bool",
          "name": "",
          "type": "bool"
        }
      ],
      "stateMutability": "nonpayable",
      "type": "function"
    },
    {
      "inputs": [
        {
          "internalType": "address",
          "name": "sender",
          "type": "address"
        },
        {
          "internalType": "uint256",
          "name": "time",
          "type": "uint256"
        }
      ],
      "name": "decreaseTime",
      "outputs": [],
      "stateMutability": "nonpayable",
      "type": "function"
    },
    {
      "inputs": [],
      "name": "deployed",
      "outputs": [
        {
          "internalType": "uint256",
          "name": "",
          "type": "uint256"
        }
      ],
      "stateMutability": "view",
      "type": "function"
    },
    {
      "inputs": [
        {
          "internalType": "address",
          "name": "spender",
          "type": "address"
        },
        {
          "internalType": "uint256",
          "name": "addedValue",
          "type": "uint256"
        }
      ],
      "name": "increaseAllowance",
      "outputs": [
        {
          "internalType": "bool",
          "name": "",
          "type": "bool"
        }
      ],
      "stateMutability": "nonpayable",
      "type": "function"
    },
    {
      "inputs": [
        {
          "internalType": "address",
          "name": "sender",
          "type": "address"
        },
        {
          "internalType": "uint256",
          "name": "time",
          "type": "uint256"
        }
      ],
      "name": "increaseTime",
      "outputs": [],
      "stateMutability": "nonpayable",
      "type": "function"
    },
    {
      "inputs": [
        {
          "internalType": "address",
          "name": "recipient",
          "type": "address"
        },
        {
          "internalType": "uint256",
          "name": "time",
          "type": "uint256"
        },
        {
          "internalType": "uint256",
          "name": "amt",
          "type": "uint256"
        }
      ],
      "name": "mint",
      "outputs": [
        {
          "internalType": "bool",
          "name": "",
          "type": "bool"
        }
      ],
      "stateMutability": "nonpayable",
      "type": "function"
    },
    {
      "inputs": [],
      "name": "name",
      "outputs": [
        {
          "internalType": "string",
          "name": "",
          "type": "string"
        }
      ],
      "stateMutability": "view",
      "type": "function"
    },
    {
      "inputs": [
        {
          "internalType": "address",
          "name": "",
          "type": "address"
        }
      ],
      "name": "nonces",
      "outputs": [
        {
          "internalType": "uint256",
          "name": "",
          "type": "uint256"
        }
      ],
      "stateMutability": "view",
      "type": "function"
    },
    {
      "inputs": [],
      "name": "owner",
      "outputs": [
        {
          "internalType": "address",
          "name": "",
          "type": "address"
        }
      ],
      "stateMutability": "view",
      "type": "function"
    },
    {
      "inputs": [
        {
          "internalType": "address",
          "name": "owner",
          "type": "address"
        },
        {
          "internalType": "address",
          "name": "spender",
          "type": "address"
        },
        {
          "internalType": "uint256",
          "name": "value",
          "type": "uint256"
        },
        {
          "internalType": "uint256",
          "name": "deadline",
          "type": "uint256"
        },
        {
          "internalType": "uint8",
          "name": "v",
          "type": "uint8"
        },
        {
          "internalType": "bytes32",
          "name": "r",
          "type": "bytes32"
        },
        {
          "internalType": "bytes32",
          "name": "s",
          "type": "bytes32"
        }
      ],
      "name": "permit",
      "outputs": [],
      "stateMutability": "nonpayable",
      "type": "function"
    },
    {
      "inputs": [],
      "name": "renounceOwnership",
      "outputs": [],
      "stateMutability": "nonpayable",
      "type": "function"
    },
    {
      "inputs": [
        {
          "internalType": "address",
          "name": "originator",
          "type": "address"
        },
        {
          "internalType": "uint256",
          "name": "amount",
          "type": "uint256"
        }
      ],
      "name": "returnOtherTime",
      "outputs": [
        {
          "internalType": "bool",
          "name": "",
          "type": "bool"
        }
      ],
      "stateMutability": "nonpayable",
      "type": "function"
    },
    {
      "inputs": [],
      "name": "startTime",
      "outputs": [
        {
          "internalType": "bool",
          "name": "",
          "type": "bool"
        }
      ],
      "stateMutability": "nonpayable",
      "type": "function"
    },
    {
      "inputs": [],
      "name": "symbol",
      "outputs": [
        {
          "internalType": "string",
          "name": "",
          "type": "string"
        }
      ],
      "stateMutability": "view",
      "type": "function"
    },
    {
      "inputs": [
        {
          "internalType": "address",
          "name": "",
          "type": "address"
        }
      ],
      "name": "timestamp",
      "outputs": [
        {
          "internalType": "uint256",
          "name": "",
          "type": "uint256"
        }
      ],
      "stateMutability": "view",
      "type": "function"
    },
    {
      "inputs": [],
      "name": "totalSupply",
      "outputs": [
        {
          "internalType": "uint256",
          "name": "",
          "type": "uint256"
        }
      ],
      "stateMutability": "view",
      "type": "function"
    },
    {
      "inputs": [
        {
          "internalType": "address",
          "name": "to",
          "type": "address"
        },
        {
          "internalType": "uint256",
          "name": "amount",
          "type": "uint256"
        }
      ],
      "name": "transfer",
      "outputs": [
        {
          "internalType": "bool",
          "name": "",
          "type": "bool"
        }
      ],
      "stateMutability": "nonpayable",
      "type": "function"
    },
    {
      "inputs": [
        {
          "internalType": "address",
          "name": "from",
          "type": "address"
        },
        {
          "internalType": "address",
          "name": "to",
          "type": "address"
        },
        {
          "internalType": "uint256",
          "name": "amount",
          "type": "uint256"
        }
      ],
      "name": "transferFrom",
      "outputs": [
        {
          "internalType": "bool",
          "name": "",
          "type": "bool"
        }
      ],
      "stateMutability": "nonpayable",
      "type": "function"
    },
    {
      "inputs": [
        {
          "internalType": "address",
          "name": "recipient",
          "type": "address"
        },
        {
          "internalType": "uint256",
          "name": "amount",
          "type": "uint256"
        }
      ],
      "name": "transferOwnTime",
      "outputs": [
        {
          "internalType": "bool",
          "name": "",
          "type": "bool"
        }
      ],
      "stateMutability": "nonpayable",
      "type": "function"
    },
    {
      "inputs": [
        {
          "internalType": "address",
          "name": "newOwner",
          "type": "address"
        }
      ],
      "name": "transferOwnership",
      "outputs": [],
      "stateMutability": "nonpayable",
      "type": "function"
    },
    {
      "inputs": [
        {
          "internalType": "address",
          "name": "",
          "type": "address"
        },
        {
          "internalType": "address",
          "name": "",
          "type": "address"
        }
      ],
      "name": "transferrableTimeBalances",
      "outputs": [
        {
          "internalType": "uint256",
          "name": "",
          "type": "uint256"
        }
      ],
      "stateMutability": "view",
      "type": "function"
    }
  ],
  "bytecode": "0x60806040523480156200001157600080fd5b5060405162001ba038038062001ba0833981016040819052620000349162000454565b8251839083906200004d906003906020850190620002e1565b50805162000063906004906020840190620002e1565b505050620000806200007a6200014160201b60201c565b62000145565b825160208085019190912060408051808201825260018152603160f81b9084015280517f8b73c3c69bb8fe3d512ecc4cf759cc79239f7b179b0ffacaa9a75d522b39400f938101939093528201527fc89efdaa54c0f20c7adf612882df0950f5a951637e0307cdcb4c672f298b8bc660608201524660808201523060a082015260c00160408051601f198184030181529190528051602090910120600955620001298162000197565b43600855620001376200021a565b505050506200051e565b3390565b600580546001600160a01b038381166001600160a01b0319831681179093556040519116919082907f8be0079c531659141344cd1fd0a4f28419497f9722a3daafe3b4186f6b6457e090600090a35050565b620001a162000283565b6001600160a01b0381166200020c5760405162461bcd60e51b815260206004820152602660248201527f4f776e61626c653a206e6577206f776e657220697320746865207a65726f206160448201526564647265737360d01b60648201526084015b60405180910390fd5b620002178162000145565b50565b336000908152600660205260408120546200027d5733600081815260066020908152604080832043905580519384529083019190915280517f53da9129c09350508b13133f30af7cb9032be8f4510afcb3e1f61202335eee689281900390910190a15b50600190565b6005546001600160a01b03163314620002df5760405162461bcd60e51b815260206004820181905260248201527f4f776e61626c653a2063616c6c6572206973206e6f7420746865206f776e6572604482015260640162000203565b565b828054620002ef90620004e1565b90600052602060002090601f0160209004810192826200031357600085556200035e565b82601f106200032e57805160ff19168380011785556200035e565b828001600101855582156200035e579182015b828111156200035e57825182559160200191906001019062000341565b506200036c92915062000370565b5090565b5b808211156200036c576000815560010162000371565b634e487b7160e01b600052604160045260246000fd5b600082601f830112620003af57600080fd5b81516001600160401b0380821115620003cc57620003cc62000387565b604051601f8301601f19908116603f01168101908282118183101715620003f757620003f762000387565b816040528381526020925086838588010111156200041457600080fd5b600091505b8382101562000438578582018301518183018401529082019062000419565b838211156200044a5760008385830101525b9695505050505050565b6000806000606084860312156200046a57600080fd5b83516001600160401b03808211156200048257600080fd5b62000490878388016200039d565b94506020860151915080821115620004a757600080fd5b50620004b6868287016200039d565b604086015190935090506001600160a01b0381168114620004d657600080fd5b809150509250925092565b600181811c90821680620004f657607f821691505b602082108114156200051857634e487b7160e01b600052602260045260246000fd5b50919050565b611672806200052e6000396000f3fe608060405234801561001057600080fd5b50600436106101cf5760003560e01c806378e9792511610104578063a9059cbb116100a2578063dd62ed3e11610071578063dd62ed3e14610400578063f2fde38b14610439578063f905c15a1461044c578063fc32cd4f1461045557600080fd5b8063a9059cbb146103b4578063cdcad9d3146103c7578063d37cf3bd146103da578063d505accf146103ed57600080fd5b80638da5cb5b116100de5780638da5cb5b14610353578063902535c91461036e57806395d89b4114610399578063a457c2d7146103a157600080fd5b806378e97925146103185780637ecebe0014610320578063840ef9641461034057600080fd5b80633644e515116101715780636c71ddfa1161014b5780636c71ddfa146102b257806370a08231146102c5578063715018a6146102ee5780637302dacf146102f857600080fd5b80633644e51514610283578063395093511461028c57806358b4feec1461029f57600080fd5b806318160ddd116101ad57806318160ddd1461022857806323b872dd1461023a57806330adf81f1461024d578063313ce5671461027457600080fd5b806306fdde03146101d4578063095ea7b3146101f2578063156e29f614610215575b600080fd5b6101dc610468565b6040516101e991906113cf565b60405180910390f35b610205610200366004611440565b6104fa565b60405190151581526020016101e9565b61020561022336600461146a565b610512565b6002545b6040519081526020016101e9565b61020561024836600461149d565b610530565b61022c7f6e71edae12b1b97f4d1f60370fef10105fa2faae0126114a169c64845d6126c981565b604051600181526020016101e9565b61022c60095481565b61020561029a366004611440565b610554565b6102056102ad366004611440565b610593565b6102056102c0366004611440565b6106a3565b61022c6102d33660046114d9565b6001600160a01b031660009081526020819052604090205490565b6102f661070f565b005b61022c6103063660046114d9565b60066020526000908152604090205481565b610205610723565b61022c61032e3660046114d9565b600a6020526000908152604090205481565b61020561034e36600461149d565b61078b565b6005546040516001600160a01b0390911681526020016101e9565b61022c61037c3660046114fb565b600760209081526000928352604080842090915290825290205481565b6101dc6108cc565b6102056103af366004611440565b6108db565b6102056103c2366004611440565b610985565b6102f66103d5366004611440565b610993565b61022c6103e83660046114d9565b6109a9565b6102f66103fb36600461152e565b610a37565b61022c61040e3660046114fb565b6001600160a01b03918216600090815260016020908152604080832093909416825291909152205490565b6102f66104473660046114d9565b610c71565b61022c60085481565b6102f6610463366004611440565b610d01565b606060038054610477906115a1565b80601f01602080910402602001604051908101604052809291908181526020018280546104a3906115a1565b80156104f05780601f106104c5576101008083540402835291602001916104f0565b820191906000526020600020905b8154815290600101906020018083116104d357829003601f168201915b5050505050905090565b600033610508818585610d13565b5060019392505050565b600061051c610e6b565b6105268484610ec5565b6105088483610f53565b60003361053e858285611032565b6105498585856110c4565b506001949350505050565b3360008181526001602090815260408083206001600160a01b0387168452909152812054909190610508908290869061058e9087906115f2565b610d13565b3360009081526007602090815260408083206001600160a01b038616845290915281205482111561060b5760405162461bcd60e51b815260206004820152601960248201527f4368726f6e69756d3a204e4f545f454e4f5547485f54494d450000000000000060448201526064015b60405180910390fd5b61061583836112db565b3360009081526007602090815260408083206001600160a01b03871684529091528120805484929061064890849061160a565b909155507f1b262337d95f367125f274b8dbbb9496bb6cdc462df2c5ff2817be9b785e0d209050335b604080516001600160a01b0392831681529186166020830152810184905260600160405180910390a150600192915050565b60006106af3383610ec5565b6001600160a01b0383166000908152600760209081526040808320338452909152812080548492906106e29084906115f2565b909155507fd9bb57a19fd8fd615f4faa8655fcec10116d59e8c591cc249b008a407ce2a93d905033610671565b610717610e6b565b6107216000611365565b565b336000908152600660205260408120546107855733600081815260066020908152604080832043905580519384529083019190915280517f53da9129c09350508b13133f30af7cb9032be8f4510afcb3e1f61202335eee689281900390910190a15b50600190565b3360009081526007602090815260408083206001600160a01b03871684529091528120548211156107fe5760405162461bcd60e51b815260206004820152601960248201527f4368726f6e69756d3a204e4f545f454e4f5547485f54494d45000000000000006044820152606401610602565b3360009081526007602090815260408083206001600160a01b03881684529091528120805484929061083190849061160a565b90915550506001600160a01b0380841660009081526007602090815260408083209388168352929052908120805484929061086d9084906115f2565b9091555050604080513381526001600160a01b0386811660208301528516818301526060810184905290517f38ad44576c8cb39be5a3b95ee3fe821216ee44ba198e5fc57a654bb92955c9289181900360800190a15060019392505050565b606060048054610477906115a1565b3360008181526001602090815260408083206001600160a01b0387168452909152812054909190838110156109785760405162461bcd60e51b815260206004820152602560248201527f45524332303a2064656372656173656420616c6c6f77616e63652062656c6f7760448201527f207a65726f0000000000000000000000000000000000000000000000000000006064820152608401610602565b6105498286868403610d13565b6000336105088185856110c4565b61099b610e6b565b6109a582826112db565b5050565b6001600160a01b038116600090815260066020526040812054610a0e5760405162461bcd60e51b815260206004820152601960248201527f4368726f6e69756d3a204e4f5f54494d455f4143434f554e54000000000000006044820152606401610602565b6001600160a01b038216600090815260066020526040902054610a31904361160a565b92915050565b42841015610a875760405162461bcd60e51b815260206004820152601160248201527f4368726f6e69756d3a20455850495245440000000000000000000000000000006044820152606401610602565b6009546001600160a01b0388166000908152600a6020526040812080549192917f6e71edae12b1b97f4d1f60370fef10105fa2faae0126114a169c64845d6126c9918b918b918b919087610ada83611621565b909155506040805160208101969096526001600160a01b0394851690860152929091166060840152608083015260a082015260c0810187905260e00160405160208183030381529060405280519060200120604051602001610b6e9291907f190100000000000000000000000000000000000000000000000000000000000081526002810192909252602282015260420190565b60408051601f198184030181528282528051602091820120600080855291840180845281905260ff88169284019290925260608301869052608083018590529092509060019060a0016020604051602081039080840390855afa158015610bd9573d6000803e3d6000fd5b5050604051601f1901519150506001600160a01b03811615801590610c0f5750886001600160a01b0316816001600160a01b0316145b610c5b5760405162461bcd60e51b815260206004820152601b60248201527f4368726f6e69756d3a20494e56414c49445f5349474e415455524500000000006044820152606401610602565b610c66898989610d13565b505050505050505050565b610c79610e6b565b6001600160a01b038116610cf55760405162461bcd60e51b815260206004820152602660248201527f4f776e61626c653a206e6577206f776e657220697320746865207a65726f206160448201527f64647265737300000000000000000000000000000000000000000000000000006064820152608401610602565b610cfe81611365565b50565b610d09610e6b565b6109a58282610ec5565b6001600160a01b038316610d8e5760405162461bcd60e51b8152602060048201526024808201527f45524332303a20617070726f76652066726f6d20746865207a65726f2061646460448201527f72657373000000000000000000000000000000000000000000000000000000006064820152608401610602565b6001600160a01b038216610e0a5760405162461bcd60e51b815260206004820152602260248201527f45524332303a20617070726f766520746f20746865207a65726f20616464726560448201527f73730000000000000000000000000000000000000000000000000000000000006064820152608401610602565b6001600160a01b0383811660008181526001602090815260408083209487168084529482529182902085905590518481527f8c5be1e5ebec7d5bd14f71427d1e84f3dd0314c0f7b2291e5b200ac8c7c3b925910160405180910390a3505050565b6005546001600160a01b031633146107215760405162461bcd60e51b815260206004820181905260248201527f4f776e61626c653a2063616c6c6572206973206e6f7420746865206f776e65726044820152606401610602565b6000610ed0836109a9565b9050818111610f215760405162461bcd60e51b815260206004820152601960248201527f4368726f6e69756d3a204e4f545f454e4f5547485f54494d45000000000000006044820152606401610602565b6001600160a01b03831660009081526006602052604081208054849290610f499084906115f2565b9091555050505050565b6001600160a01b038216610fa95760405162461bcd60e51b815260206004820152601f60248201527f45524332303a206d696e7420746f20746865207a65726f2061646472657373006044820152606401610602565b8060026000828254610fbb91906115f2565b90915550506001600160a01b03821660009081526020819052604081208054839290610fe89084906115f2565b90915550506040518181526001600160a01b038316906000907fddf252ad1be2c89b69c2b068fc378daa952ba7f163c4a11628f55a4df523b3ef9060200160405180910390a35050565b6001600160a01b0383811660009081526001602090815260408083209386168352929052205460001981146110be57818110156110b15760405162461bcd60e51b815260206004820152601d60248201527f45524332303a20696e73756666696369656e7420616c6c6f77616e63650000006044820152606401610602565b6110be8484848403610d13565b50505050565b6001600160a01b0383166111405760405162461bcd60e51b815260206004820152602560248201527f45524332303a207472616e736665722066726f6d20746865207a65726f20616460448201527f64726573730000000000000000000000000000000000000000000000000000006064820152608401610602565b6001600160a01b0382166111bc5760405162461bcd60e51b815260206004820152602360248201527f45524332303a207472616e7366657220746f20746865207a65726f206164647260448201527f65737300000000000000000000000000000000000000000000000000000000006064820152608401610602565b6001600160a01b0383166000908152602081905260409020548181101561124b5760405162461bcd60e51b815260206004820152602660248201527f45524332303a207472616e7366657220616d6f756e742065786365656473206260448201527f616c616e636500000000000000000000000000000000000000000000000000006064820152608401610602565b6001600160a01b038085166000908152602081905260408082208585039055918516815290812080548492906112829084906115f2565b92505081905550826001600160a01b0316846001600160a01b03167fddf252ad1be2c89b69c2b068fc378daa952ba7f163c4a11628f55a4df523b3ef846040516112ce91815260200190565b60405180910390a36110be565b6001600160a01b03821660009081526006602052604090205481106113425760405162461bcd60e51b815260206004820152601b60248201527f4368726f6e69756d3a204e4f545f454e4f5547485f424c4f434b5300000000006044820152606401610602565b6001600160a01b0390911660009081526006602052604090208054919091039055565b600580546001600160a01b038381167fffffffffffffffffffffffff0000000000000000000000000000000000000000831681179093556040519116919082907f8be0079c531659141344cd1fd0a4f28419497f9722a3daafe3b4186f6b6457e090600090a35050565b600060208083528351808285015260005b818110156113fc578581018301518582016040015282016113e0565b8181111561140e576000604083870101525b50601f01601f1916929092016040019392505050565b80356001600160a01b038116811461143b57600080fd5b919050565b6000806040838503121561145357600080fd5b61145c83611424565b946020939093013593505050565b60008060006060848603121561147f57600080fd5b61148884611424565b95602085013595506040909401359392505050565b6000806000606084860312156114b257600080fd5b6114bb84611424565b92506114c960208501611424565b9150604084013590509250925092565b6000602082840312156114eb57600080fd5b6114f482611424565b9392505050565b6000806040838503121561150e57600080fd5b61151783611424565b915061152560208401611424565b90509250929050565b600080600080600080600060e0888a03121561154957600080fd5b61155288611424565b965061156060208901611424565b95506040880135945060608801359350608088013560ff8116811461158457600080fd5b9699959850939692959460a0840135945060c09093013592915050565b600181811c908216806115b557607f821691505b602082108114156115d657634e487b7160e01b600052602260045260246000fd5b50919050565b634e487b7160e01b600052601160045260246000fd5b60008219821115611605576116056115dc565b500190565b60008282101561161c5761161c6115dc565b500390565b6000600019821415611635576116356115dc565b506001019056fea2646970667358221220673ff1cfac20c8c9cc8f0418bc82639a3a5f04e72ae4b3699a082a1a4cee55bc64736f6c63430008080033",
  "linkReferences": {},
  "deployedLinkReferences": {}
}