{
  "_format": "hh-sol-artifact-1",
  "contractName": "ChroniumDistilleryV1",
  "sourceName": "contracts/chronium-contracts-sol/ChroniumDistilleryV1.sol",
  "abi": [
    {
      "anonymous": false,
      "inputs": [
        {
          "indexed": false,
          "internalType": "uint8",
          "name": "version",
          "type": "uint8"
        }
      ],
      "name": "Initialized",
      "type": "event"
    },
    {
      "anonymous": false,
      "inputs": [
        {
          "indexed": false,
          "internalType": "address",
          "name": "timeOwner",
          "type": "address"
        },
        {
          "indexed": false,
          "internalType": "uint256",
          "name": "time",
          "type": "uint256"
        },
        {
          "indexed": false,
          "internalType": "uint256",
          "name": "amount",
          "type": "uint256"
        }
      ],
      "name": "LogDistill",
      "type": "event"
    },
    {
      "anonymous": false,
      "inputs": [
        {
          "indexed": false,
          "internalType": "address",
          "name": "sender",
          "type": "address"
        },
        {
          "indexed": false,
          "internalType": "uint256",
          "name": "rate",
          "type": "uint256"
        }
      ],
      "name": "LogSetDefaultEmissionRate",
      "type": "event"
    },
    {
      "anonymous": false,
      "inputs": [
        {
          "indexed": true,
          "internalType": "address",
          "name": "previousOwner",
          "type": "address"
        },
        {
          "indexed": true,
          "internalType": "address",
          "name": "newOwner",
          "type": "address"
        }
      ],
      "name": "OwnershipTransferred",
      "type": "event"
    },
    {
      "inputs": [
        {
          "internalType": "address",
          "name": "chronium",
          "type": "address"
        },
        {
          "internalType": "uint256",
          "name": "defaultEmissionRate_",
          "type": "uint256"
        },
        {
          "internalType": "address",
          "name": "governance",
          "type": "address"
        }
      ],
      "name": "__ChroniumDistilleryV1_Init",
      "outputs": [],
      "stateMutability": "nonpayable",
      "type": "function"
    },
    {
      "inputs": [],
      "name": "defaultEmissionRate",
      "outputs": [
        {
          "internalType": "uint256",
          "name": "",
          "type": "uint256"
        }
      ],
      "stateMutability": "view",
      "type": "function"
    },
    {
      "inputs": [
        {
          "internalType": "uint256",
          "name": "time",
          "type": "uint256"
        }
      ],
      "name": "distill",
      "outputs": [
        {
          "internalType": "bool",
          "name": "",
          "type": "bool"
        }
      ],
      "stateMutability": "nonpayable",
      "type": "function"
    },
    {
      "inputs": [],
      "name": "owner",
      "outputs": [
        {
          "internalType": "address",
          "name": "",
          "type": "address"
        }
      ],
      "stateMutability": "view",
      "type": "function"
    },
    {
      "inputs": [],
      "name": "renounceOwnership",
      "outputs": [],
      "stateMutability": "nonpayable",
      "type": "function"
    },
    {
      "inputs": [
        {
          "internalType": "uint256",
          "name": "rate_",
          "type": "uint256"
        }
      ],
      "name": "setDefaultEmissionRate",
      "outputs": [
        {
          "internalType": "bool",
          "name": "",
          "type": "bool"
        }
      ],
      "stateMutability": "nonpayable",
      "type": "function"
    },
    {
      "inputs": [
        {
          "internalType": "address",
          "name": "newOwner",
          "type": "address"
        }
      ],
      "name": "transferOwnership",
      "outputs": [],
      "stateMutability": "nonpayable",
      "type": "function"
    }
  ],
  "bytecode": "0x608060405234801561001057600080fd5b5061087e806100206000396000f3fe608060405234801561001057600080fd5b506004361061007d5760003560e01c8063715018a61161005b578063715018a6146100d65780638da5cb5b146100de578063de3509d6146100f9578063f2fde38b1461010c57600080fd5b806319f85ca31461008257806323518cc9146100aa5780633da4f4c4146100bf575b600080fd5b610095610090366004610739565b61011f565b60405190151581526020015b60405180910390f35b6100bd6100b8366004610769565b6103a2565b005b6100c860665481565b6040519081526020016100a1565b6100bd6104fb565b6033546040516001600160a01b0390911681526020016100a1565b610095610107366004610739565b61050f565b6100bd61011a3660046107a5565b61056a565b600080336065546040517f7302dacf0000000000000000000000000000000000000000000000000000000081526001600160a01b03808416600483015292935060009290911690637302dacf90602401602060405180830381600087803b15801561018957600080fd5b505af115801561019d573d6000803e3d6000fd5b505050506040513d601f19601f820116820180604052508101906101c191906107c7565b116102135760405162461bcd60e51b815260206004820152601860248201527f44697374696c6c3a204e4f5f54494d455f4143434f554e54000000000000000060448201526064015b60405180910390fd5b60008360665461022391906107e0565b6065546040517f156e29f60000000000000000000000000000000000000000000000000000000081526001600160a01b038581166004830152602482018890526044820184905292935091169063156e29f690606401602060405180830381600087803b15801561029357600080fd5b505af19250505080156102c3575060408051601f3d908101601f191682019092526102c091810190610826565b60015b61034d573d8080156102f1576040519150601f19603f3d011682016040523d82523d6000602084013e6102f6565b606091505b5080516103455760405162461bcd60e51b815260206004820152601460248201527f44697374696c6c3a204d494e545f4641494c4544000000000000000000000000604482015260640161020a565b805181602001fd5b50604080516001600160a01b0384168152602081018690529081018290527f28b5db2a403bb13798f577a6fe6da5164bd001bdd7521d2d137841d69f9ff3159060600160405180910390a15060019392505050565b600054610100900460ff16158080156103c25750600054600160ff909116105b806103dc5750303b1580156103dc575060005460ff166001145b61044e5760405162461bcd60e51b815260206004820152602e60248201527f496e697469616c697a61626c653a20636f6e747261637420697320616c72656160448201527f647920696e697469616c697a6564000000000000000000000000000000000000606482015260840161020a565b6000805460ff191660011790558015610471576000805461ff0019166101001790555b6104796105fa565b6065805473ffffffffffffffffffffffffffffffffffffffff19166001600160a01b03861617905560668390556104af8261056a565b80156104f5576000805461ff0019169055604051600181527f7f26b83ff96e1f2b6a682f133852f6798a09c465da95921460cefb38474024989060200160405180910390a15b50505050565b610503610680565b61050d60006106da565b565b6000610519610680565b60668290557f32deafbd5e94f12fec32cd601364da3f074fb368c3a636c79854c3ef1e48c45f33604080516001600160a01b039092168252602082018590520160405180910390a15060015b919050565b610572610680565b6001600160a01b0381166105ee5760405162461bcd60e51b815260206004820152602660248201527f4f776e61626c653a206e6577206f776e657220697320746865207a65726f206160448201527f6464726573730000000000000000000000000000000000000000000000000000606482015260840161020a565b6105f7816106da565b50565b600054610100900460ff166106775760405162461bcd60e51b815260206004820152602b60248201527f496e697469616c697a61626c653a20636f6e7472616374206973206e6f74206960448201527f6e697469616c697a696e67000000000000000000000000000000000000000000606482015260840161020a565b61050d336106da565b6033546001600160a01b0316331461050d5760405162461bcd60e51b815260206004820181905260248201527f4f776e61626c653a2063616c6c6572206973206e6f7420746865206f776e6572604482015260640161020a565b603380546001600160a01b0383811673ffffffffffffffffffffffffffffffffffffffff19831681179093556040519116919082907f8be0079c531659141344cd1fd0a4f28419497f9722a3daafe3b4186f6b6457e090600090a35050565b60006020828403121561074b57600080fd5b5035919050565b80356001600160a01b038116811461056557600080fd5b60008060006060848603121561077e57600080fd5b61078784610752565b92506020840135915061079c60408501610752565b90509250925092565b6000602082840312156107b757600080fd5b6107c082610752565b9392505050565b6000602082840312156107d957600080fd5b5051919050565b6000816000190483118215151615610821577f4e487b7100000000000000000000000000000000000000000000000000000000600052601160045260246000fd5b500290565b60006020828403121561083857600080fd5b815180151581146107c057600080fdfea26469706673582212203207f1b4df455bb35664ac05ce6a047f40b7f135616f1e199c34d4e48f99a2f464736f6c63430008080033",
  "linkReferences": {},
  "deployedLinkReferences": {}
}